:020000040800F2
:1000000000000220851D00080113000803130008EA
:10001000051300080713000809130008000000007A
:10002000000000000000000000000000F17D00085A
:100030000B13000800000000917E0008F57E000808
:10004000D51D0008D51D0008D51D0008D51D0008C8
:10005000D51D0008D51D0008D51D0008D51D0008B8
:10006000D51D00080D13000817130008D51D000842
:1000700021130008D51D0008D51D0008D51D000856
:10008000D51D0008D51D0008D51D0008D51D000888
:100090003113000849130008D51D00085913000842
:1000A000D51D0008D51D0008D51D0008D51D000868
:1000B00065130008D51D0008D51D0008D51D0008D2
:1000C000D51D0008D51D0008D51D0008D51D000848
:1000D000D51D000875130008D51D000845D8000877
:1000E000D51D0008D51D0008D51D0008D51D000828
:1000F000D51D0008D51D0008D51D0008D51D000818
:10010000D51D0008D51D0008D51D0008D51D000807
:10011000D51D0008D51D0008D51D0008D51D0008F7
:10012000D51D0008D9130008D51D0008D51D0008ED
:10013000D51D0008D51D0008D51D0008D51D0008D7
:10014000E913000801140008D51D00081114000867
:100150002114000831140008411400085DC400088F
:10016000D51D0008D51D0008D51D0008D51D0008A7
:10017000D51D0008D51D0008D51D00080000000091
:08018000D51D0008D51D000883
:1001900010B5054C237833B9044B13B10448AFF3C1
:1001A00000800123237010BDA00A00200000000081
:1001B0008836010808B5034B1BB103490348AFF368
:1001C000008008BD00000000A40A00208836010855
:1001D00053B94AB9002908BF00281CBF4FF0FF31AE
:1001E0004FF0FF3000F074B9ADF1080C6DE904CEAA
:1001F00000F006F8DDF804E0DDE9022304B0704702
:100200002DE9F047089D04468E46002B4DD18A42C9
:10021000944669D9B2FA82F252B101FA02F3C2F1FC
:10022000200120FA01F10CFA02FC41EA030E94408D
:100230004FEA1C48210CBEFBF8F61FFA8CF708FBAE
:1002400016E341EA034306FB07F199420AD91CEB86
:10025000030306F1FF3080F01F81994240F21C81B8
:10026000023E63445B1AA4B2B3FBF8F008FB103300
:1002700044EA034400FB07F7A7420AD91CEB040435
:1002800000F1FF3380F00A81A74240F20781644405
:10029000023840EA0640E41B00261DB1D44000238A
:1002A000C5E900433146BDE8F0878B4209D9002DEE
:1002B00000F0EF800026C5E9000130463146BDE878
:1002C000F087B3FA83F6002E4AD18B4202D38242E2
:1002D00000F2F980841A61EB030301209E46002D91
:1002E000E0D0C5E9004EDDE702B9FFDEB2FA82F2E6
:1002F000002A40F09280A1EB0C014FEA1C471FFA44
:100300008CFE0126200CB1FBF7F307FB131140EA2A
:1003100001410EFB03F0884208D91CEB010103F1F7
:10032000FF3802D2884200F2CB804346091AA4B2B9
:10033000B1FBF7F007FB101144EA01440EFB00FE8D
:10034000A64508D91CEB040400F1FF3102D2A645F2
:1003500000F2BB800846A4EB0E0440EA03409CE791
:10036000C6F12007B34022FA07FC4CEA030C20FA3E
:1003700007F401FA06F31C43F9404FEA1C4900FA5E
:1003800006F3B1FBF9F8200C1FFA8CFE09FB1811DB
:1003900040EA014108FB0EF0884202FA06F20BD94E
:1003A0001CEB010108F1FF3A80F08880884240F29E
:1003B0008580A8F102086144091AA4B2B1FBF9F0E2
:1003C00009FB101144EA014100FB0EFE8E4508D9DD
:1003D0001CEB010100F1FF346CD28E456AD9023862
:1003E000614440EA0840A0FB0294A1EB0E01A14247
:1003F000C846A64656D353D05DB1B3EB080261EBB5
:100400000E0101FA07F722FA06F3F1401F43C5E98E
:10041000007100263146BDE8F087C2F12003D840C4
:100420000CFA02FC21FA03F3914001434FEA1C4706
:100430001FFA8CFEB3FBF7F007FB10360B0C43EAF8
:10044000064300FB0EF69E4204FA02F408D91CEBA8
:10045000030300F1FF382FD29E422DD902386344A6
:100460009B1B89B2B3FBF7F607FB163341EA034146
:1004700006FB0EF38B4208D91CEB010106F1FF3895
:1004800016D28B4214D9023E6144C91A46EA00468C
:1004900038E72E46284605E70646E3E61846F8E61E
:1004A0004B45A9D2B9EB020864EB0C0E0138A3E767
:1004B0004646EAE7204694E74046D1E7D0467BE748
:1004C000023B614432E7304609E76444023842E7C0
:1004D000704700BF844641EA000313F003036DD167
:1004E000403A41D351F8043B40F8043B51F8043BF7
:1004F00040F8043B51F8043B40F8043B51F8043BFE
:1005000040F8043B51F8043B40F8043B51F8043BED
:1005100040F8043B51F8043B40F8043B51F8043BDD
:1005200040F8043B51F8043B40F8043B51F8043BCD
:1005300040F8043B51F8043B40F8043B51F8043BBD
:1005400040F8043B51F8043B40F8043B51F8043BAD
:1005500040F8043B51F8043B40F8043B51F8043B9D
:1005600040F8043B403ABDD2303211D351F8043B3D
:1005700040F8043B51F8043B40F8043B51F8043B7D
:1005800040F8043B51F8043B40F8043B103AEDD2EC
:100590000C3205D351F8043B40F8043B043AF9D23D
:1005A000043208D0D2071CBF11F8013B00F8013B10
:1005B00001D30B8803806046704700BF082A13D31D
:1005C0008B078DD010F003038AD0C3F10403D21A35
:1005D000DB071CBF11F8013B00F8013B80D331F869
:1005E000023B20F8023B7BE7043AD9D3013A11F8E9
:1005F000013B00F8013BF9D20B7803704B78437054
:100600008B7883706046704700B585B000230093F7
:100610000193029303931548154A02604FF4803208
:10062000426083600361037680F82030C362114A20
:100630008262C3600122C26180F83030426101F001
:10064000A5FC68B9102300930123019300230293B2
:100650006946064801F0C8FD28B905B05DF804FBFD
:1006600000F085FCEEE700F082FCF6E7BC0A002013
:10067000002001400100000F00B585B00023009369
:100680000193029303931548154A02604FF4003218
:10069000426083600361037680F82030C362114AB0
:1006A0008262C3600122C26180F83030426101F091
:1006B0006DFC68B908230093012301930023029382
:1006C0006946064801F090FD28B905B05DF804FBC5
:1006D00000F04DFCEEE700F04AFCF6E7040B0020CA
:1006E000002201400100000F00B589B000230393F0
:1006F000049305930693079303681B4A934205D01E
:100700001A4A93420FD009B05DF804FB002300930E
:10071000174B5A6C42F480725A645B6C03F480731A
:100720000093009BEFE700210191114B5A6C42F4BA
:1007300080625A645A6C02F480620192019A0291BA
:100740001A6B42F020021A631B6B03F02003029322
:10075000029B4FF4806303930323049303A905488A
:1007600002F0A4FCCFE700BF0020014000220140BE
:10077000003802400014024008B50D480D4B0360DC
:100780000323436000238360C3604FF4102202619F
:100790004FF400124261037643768376C376037783
:1007A000437701F0EDFD00B908BD00F0E0FBFBE789
:1007B000500B00200064004008B50D480D4B03604D
:1007C0000323436000238360C3604FF4102202615F
:1007D0004FF400124261037643768376C376037743
:1007E000437701F0CDFD00B908BD00F0C0FBFBE789
:1007F000780B00200068004010B58AB000230593F4
:1008000006930793089309930368454A934204D0DB
:10081000444A93423CD00AB010BD434A13680133A6
:100820001360012B27D000240194404B1A6B42F037
:1008300008021A631B6B03F008030193019B032357
:1008400005930222069208930923099305A93848C3
:1008500002F02CFC22460521142002F07BF9142022
:1008600002F0B0F922460521152002F073F9152097
:1008700002F0A8F9CFE7002300932C4B1A6C42F04A
:1008800000721A641B6C03F000730093009BCAE7AC
:1008900000230293254B1A6C42F080621A641B6C91
:1008A00003F080630293029B1F4A136801331360B5
:1008B000012B28D0002404941C4B1A6B42F0020236
:1008C0001A631B6B03F002030493049B60230593DC
:1008D00002230693032308930923099305A91548C6
:1008E00002F0E4FB22460521402002F033F94020CB
:1008F00002F068F922460521412002F02BF941203F
:1009000002F060F987E700230393084B1A6C42F06A
:1009100000721A641B6C03F000730393039BC9E716
:1009200000640040006800404C0B0020003802408A
:10093000000C02400004024010B582B00024009474
:10094000264B1A6B42F480021A631A6B02F480027F
:100950000092009A01941A6B42F400121A631B6B06
:1009600003F400130193019B224605210C2002F0A1
:10097000F1F80C2002F026F922460521392002F078
:10098000E9F8392002F01EF9224605213A2002F04A
:10099000E1F83A2002F016F9224605213B2002F048
:1009A000D9F83B2002F00EF922460521442002F03E
:1009B000D1F8442002F006F922460521452002F034
:1009C000C9F8452002F0FEF822460521462002F033
:1009D000C1F8462002F0F6F802B010BD003802401F
:1009E00008B50121084810F097F80028F9D10BF05C
:1009F000B7F8064B012283F8B8200BF069FA012002
:100A000007F056F9F9E700BF3C1C0020F8840020ED
:100A1000034B0360034B0B6080231360704700BFE0
:100A2000D00D0020CC0B0020034B0360034B0B6068
:100A30004FF480731360704750160020501200204E
:100A400010B5CEB0634C0DF58E7CA646BEE80F0007
:100A5000ACE80F009EE807008CE80700002147A8DB
:100A600007F0F1F85C4B18600DF5807C04F11C0E6A
:100A7000BEE80F00ACE80F009EE807008CE8070016
:100A8000002140A807F0DFF8544B18600DF1E40C8A
:100A900004F1380EBEE80F00ACE80F009EE8070036
:100AA0008CE80700002139A807F0CDF84C4B1860FE
:100AB0000DF1C80C04F1540EBEE80F00ACE80F00B5
:100AC0009EE807008CE80700002132A807F0BBF879
:100AD000444B18600DF1AC0C04F1700EBEE80F0031
:100AE000ACE80F009EE807008CE8070000212BA867
:100AF00007F0A9F83C4B18600DF1900C04F18C0E36
:100B0000BEE80F00ACE80F009EE807008CE8070085
:100B1000002124A807F097F8344B18600DF1740CED
:100B200004F1A80EBEE80F00ACE80F009EE8070035
:100B30008CE8070000211DA807F085F82C4B1860F1
:100B40000DF1580C04F1C40EBEE80F00ACE80F0024
:100B50009EE807008CE80700002116A807F073F84C
:100B6000244B18600DF13C0C04F1E00EBEE80F00C0
:100B7000ACE80F009EE807008CE8070000210FA8F2
:100B800007F061F81C4B18600DF1200C04F1FC0E0D
:100B9000BEE80F00ACE80F009EE807008CE80700F5
:100BA000002108A807F04FF8144B18600DF1040C51
:100BB00004F58C740FCCACE80F0094E807008CE8C7
:100BC0000700002101A807F03EF80D4B18604EB059
:100BD00010BD00BFA0360108A00B0020A80B00200C
:100BE000AC0B0020B00B0020B40B0020BC0B00208D
:100BF000C00B0020A40B0020C80B0020B80B002065
:100C0000C40B00202DE9F0478EB0002409940A940B
:100C10000B940C940D9400946A4B1A6B42F00202F0
:100C20001A631A6B02F002020092009A01941A6B86
:100C300042F040021A631A6B02F040020192019ADC
:100C400002941A6B42F001021A631A6B02F001025D
:100C50000292029A03941A6B42F008021A631A6B0A
:100C600002F008020392039A04941A6B42F0040201
:100C70001A631A6B02F004020492049A05941A6B28
:100C800042F480721A631A6B02F480720592059A1C
:100C900006941A6B42F080021A631A6B02F080020B
:100CA0000692069A07941A6B42F020021A631A6B96
:100CB00002F020020792079A08941A6B42F0100281
:100CC0001A631B6B03F010030893089B3E4F01222D
:100CD0004021384602F0DCFADFF8F09022464FF46B
:100CE000E051484602F0D4FADFF8E4A001221021D6
:100CF000504602F0CDFADFF8DC8001221146404672
:100D000002F0C6FA4023099301250A950B950C952C
:100D100009A9384602F0CAF94FF4E05309930A953D
:100D20000B9502260C9609A9484602F0BFF9082344
:100D300009934FF40419CDF828900B9509A938466A
:100D400002F0B4F9072309930A940B94A7F580578E
:100D500009A9384602F0AAF9102309930A950B95C0
:100D60000C9609A9504602F0A1F930230993CDF859
:100D700028900B9509A9384602F098F909950A952B
:100D80000B950C9609A9404602F090F922460521E0
:100D9000092001F0DFFE092001F014FF22460521A1
:100DA0000A2001F0D7FE0A2001F00CFF224605219F
:100DB000172001F0CFFE172001F004FF0EB0BDE8B0
:100DC000F08700BF0038024000180240001C0240BB
:100DD000000002400004024008B50B480B4B0360C2
:100DE0000B4B436000238360C3604FF48042026179
:100DF00043618361C361036202F068FA00B908BD10
:100E000000F0B5F8FBE700BFD01A00200054004006
:100E1000801A060008B50B480B4B03600B4B436070
:100E200000238360C3604FF48042026143618361A9
:100E3000C361036202F04AFA00B908BD00F097F8F6
:100E4000FBE700BF241B0020005C0040801A060066
:100E50002DE9F0438BB00023059306930793089385
:100E600009930368374A934205D0374A934228D002
:100E70000BB0BDE8F08300250095344C236B43F0A4
:100E800002032363236B03F002030093009B4FF4E0
:100E900040730593122306930123079303230893BA
:100EA0000423099305A92A4802F000F90195236C4F
:100EB00043F400132364236C03F400130193019B98
:100EC000D6E700250295214C236B43F004032363EE
:100ED000236B03F004030293029B0395236B43F0FF
:100EE00001032363236B03F001030393039B4FF47C
:100EF000007305934FF01209CDF818904FF00108D8
:100F0000CDF81C80032708970426099605A91148E7
:100F100002F0CCF84FF480730593CDF81890CDF81B
:100F20001C800897099605A90B4802F0BFF80495A4
:100F3000236C43F400032364236C03F40003049341
:100F4000049B95E700540040005C004000380240DC
:100F500000040240000802400000024008B5036897
:100F6000B3F1804F00D008BD00F050FFFBE772B630
:100F7000FEE7000000B595B03022002108A810F06F
:100F8000D9FF0023039304930593069307930193DA
:100F9000204A116C41F080511164126C02F08052B1
:100FA0000192019A02931C4B1A6842F480421A6023
:100FB0001B6803F480430293029B012308934FF4C0
:100FC0008033099302230E934FF480020F9206227E
:100FD0001092A822119212930723139308A803F0EA
:100FE000BDF898B90F2303930223049300230593BC
:100FF0004FF4A05306934FF480530793052103A8A1
:1010000003F0FAFA20B915B05DF804FBFFF7AFFF63
:10101000FFF7ADFF003802400070004008B500F057
:10102000DBFEFFF7A7FFFFF7EDFDFFF785FCFFF7FE
:10103000EBFAFFF721FBFFF79FFBFFF7BDFBFFF785
:10104000CBFEFFF7E7FE00F02BF800F00FFB00F0FF
:101050009DFB00F0F3FB00F077FC00F0DFFC00F0FC
:10106000F7FC00F011FD0CF009FD00F0A7FC0CF0FE
:10107000F3FC0CF0D9FB0CF01FFF0BF0F5FD0CF0AE
:10108000DDFB064B18600FF04DF8A8200CF028FD92
:10109000FFF7D6FC06F0D2FDFEE700BF781B00206C
:1010A00008B50F480F4B03604FF482734360002371
:1010B0008360C36002220261012242614FF4007228
:1010C00082611022C2610362436283620A23C362A7
:1010D00003F024FC00B908BDFFF749FFFBE700BFA0
:1010E0003C1C0020003001402DE9F04389B0002372
:1010F0000393049305930693079302683F4B9A4228
:1011000002D009B0BDE8F08304460025009503F540
:1011100084335A6C42F480525A645A6C02F48052FE
:101120000092009A01951A6B42F002021A631A6B40
:1011300002F002020192019A02951A6B42F001023A
:101140001A631B6B03F001030293029B18230393A2
:101150004FF00209CDF810904FF00108CDF814803F
:10116000032706970526079603A9254801F09EFF49
:1011700080230393CDF81090CDF81480069707963E
:1011800003A9204801F092FF1F48204B03604FF055
:10119000C06343608560C5604FF48063036145614F
:1011A0008561C5614FF440330362456201F098FDEB
:1011B000E8B9154BE3649C631548164B03604FF088
:1011C000C0634360402383600023C3604FF48062A8
:1011D000026143618361C3614FF400320262436282
:1011E00001F07EFD30B90A4BA3649C6389E7FFF7E9
:1011F000BEFEDEE7FFF7BBFEF5E700BF00300140B3
:1012000000040240000002407C1B002040640240B9
:10121000DC1B00205864024000B583B0002200921D
:101220000D4B596C41F480415964596C01F4804173
:10123000009100990192196C41F0805119641B6C66
:1012400003F080530193019B0F216FF0010001F027
:1012500081FC03B05DF804FB0038024030B589B072
:10126000044600230193224B1A6C42F001021A64D7
:101270001B6C03F001030193019B02A903A803F077
:1012800091FA069BD3B903F06DFA03461948A0FB07
:1012900003239B0C013B18484FF08042026040F250
:1012A000E732C2604360002303618360836103F01F
:1012B000DFFE054630B1284609B030BD03F052FAD2
:1012C0004300E3E70C4803F069FD05460028F2D12E
:1012D0001C2001F077FC0F2C01D90125EBE700223F
:1012E00021461C2001F036FC044B1C60E3E700BFE4
:1012F0000038024083DE1B43941C002008000020BD
:10130000FEE7FEE7FEE7FEE7FEE7704708B50820C8
:1013100001F0CEFF08BD08B5102001F0C9FF08BDDF
:1013200008B5024801F0D4FD08BD00BFC01E002072
:1013300010B5044C204601F0D5FA20460BF0ECFD28
:1013400010BD00BF500B002008B5024801F0CAFADA
:1013500008BD00BF500B002008B5202001F0A8FFF9
:1013600008BD000008B5024803F061FD08BD00BFDC
:10137000941C002030B583B0134C204604F0A0FB31
:1013800023681A6812F0100F01D103B030BD00229B
:1013900001921A6801925B680193019B204604F058
:1013A00069FA0A4B1B685968C9B2C1F16401C9B234
:1013B000074B1970074D28460CF08EFD6422294614
:1013C000204604F069FDE0E7E01F0020001E002039
:1013D00044B00020E0AF002008B5024801F078FDDD
:1013E00008BD00BF201F002010B5044C204601F0AE
:1013F00079FA20460BF090FD10BD00BF780B00205D
:1014000008B5024801F06EFA08BD00BF780B002055
:1014100008B5024802F094FB08BD00BFFCA50020FF
:1014200008B5024801F054FD08BD00BF001E0020B1
:1014300008B5024801F04CFD08BD00BF801F002028
:1014400008B5024801F044FD08BD00BF601E002041
:1014500010B503460C4A0D490D48006840B10C48D0
:1014600000680344521A934206D8094A136010BD1B
:101470000748084C0460F2E710F07AFA0C23036086
:101480004FF0FF30F3E700BF0000022000800000B3
:10149000DC1C002070C10020034AD2F8883043F4DD
:1014A0007003C2F88830704700ED00E084B0036834
:1014B000204A934215D0204A934220D01F4A93429B
:1014C0002AD01F4A934218D1002303931D4B5A6C14
:1014D00042F400325A645B6C03F400330393039BC1
:1014E0000BE000230093174B5A6C42F001025A6440
:1014F0005B6C03F001030093009B04B07047002372
:101500000193104B1A6C42F004021A641B6C03F036
:1015100004030193019BF0E700230293094B5A6CEB
:1015200042F002025A645B6C03F002030293029BD6
:10153000E3E700BF00000140000800400004014054
:10154000004401400038024000B58BB000230593F1
:10155000069307930893099303683B4A93420BD081
:101560003A4A934222D03A4A934239D0394A934276
:1015700050D00BB05DF804FB00230193364B1A6B7F
:1015800042F010021A631B6B03F010030193019BDE
:101590004FF4D44305930222069201230793089245
:1015A000099305A92D4801F081FDE2E7002302938C
:1015B000294B1A6B42F008021A631B6B03F00803F5
:1015C0000293029B4FF4804305930223069301226A
:1015D00007920893099305A9214801F067FDC8E720
:1015E000002303931C4B1A6B42F480721A631B6B2B
:1015F00003F480730393039BE02305930223069374
:101600000122079208930323099305A9154801F0C5
:101610004DFDAEE7002304930F4B1A6B42F02002FE
:101620001A631B6B03F020030493049B4023059370
:10163000022306930122079208930323099305A925
:10164000094801F033FD94E7000001400008004024
:1016500000040140004401400038024000100240F4
:10166000000C0240002002400014024010B596B069
:1016700000241294139414941594109411940994C2
:101680000A940B940C940D940E940F9420222146EE
:1016900001A810F04FFC3B483B4B0360A72343607D
:1016A000846044F61F63C36004614461846103F095
:1016B000DFFC00284BD14FF48053129312A931481C
:1016C00003F0E1FD002845D12E4803F0FDFC002881
:1016D00043D100231093119310A92A4803F0E4FE8C
:1016E00000283DD16023099300220A920B920C92AC
:1016F0000D920E920F9209A9224803F049FD00288D
:1017000031D1042209A91F4803F042FD70BB082211
:1017100009A91C4803F03CFD58BB0C2209A9194833
:1017200003F036FD40BB002301930293039304931F
:1017300005934FF400520692089301A9114803F053
:10174000F9FEE0B90F48FFF7FFFE16B010BDFFF736
:101750000EFCB0E7FFF70BFCB6E7FFF708FCB8E7B5
:10176000FFF705FCBEE7FFF702FCCAE7FFF7FFFB48
:10177000CDE7FFF7FCFBD0E7FFF7F9FBD3E7FFF777
:10178000F6FBDFE7E01C00200000014000B58FB051
:1017900000230A930B930C930D93089309930193E1
:1017A0000293039304930593069307932148224AD7
:1017B00002600322426083604FF6FF72C2600361E1
:1017C000836103F055FC28BB4FF480530A930AA9A8
:1017D000184803F058FD00BB164803F075FCF8B933
:1017E00000230893099308A9124803F05DFED0B9BD
:1017F000602301930023029303930593082201A918
:101800000C4803F0C5FC88B90A48FFF79DFE0FB0ED
:101810005DF804FBFFF7ABFBD6E7FFF7A8FBDBE7C0
:10182000FFF7A5FBDCE7FFF7A2FBE1E7FFF79FFB74
:10183000EAE700BF701D00200008004010B596B018
:1018400000241294139414941594109411940994F0
:101850000A940B940C940D940E940F94202221461C
:1018600001A810F067FB3648364B03604460846083
:101870004FF6FF73C36004614461846103F0F8FBB9
:10188000002844D14FF48053129312A92C4803F03E
:10189000FAFC00283ED12A4803F016FC00283CD16F
:1018A00000231093119310A9254803F0FDFD002893
:1018B00036D16023099300220A920B920C920D926A
:1018C0000E920F9209A91E4803F062FC58BB042235
:1018D00009A91B4803F05CFC40BB082209A9184871
:1018E00003F056FC28BB0023019302930393049357
:1018F00005934FF400520692089301A9104803F093
:1019000019FEC8B90E48FFF71FFE16B010BDFFF74D
:101910002EFBB7E7FFF72BFBBDE7FFF728FBBFE781
:10192000FFF725FBC5E7FFF722FBD0E7FFF71FFB1B
:10193000D3E7FFF71CFBD6E7FFF719FBE2E700BF91
:10194000B81D00200004014000B589B000230193B8
:101950000293039304930593069307931548164A3D
:10196000026053224260836040F2CF72C260036122
:10197000836103F07DFBA0B90E4803F0A5FB98B985
:1019800060230193002202920392059201A9094863
:1019900003F0FEFB58B90748FFF7D6FD09B05DF824
:1019A00004FBFFF7E4FAE7E7FFF7E1FAE8E7FFF700
:1019B000DEFAF0E7281D00200044014010B50821A0
:1019C000124803F0EFFC124C0021204603F0EAFC21
:1019D0000421204603F0E6FC0821204603F0E2FC47
:1019E0000C21204603F0DEFC0A4C0021204603F0C7
:1019F000D9FC0421204603F0D5FC0821204603F041
:101A0000D1FC0021044803F0CDFC10BD701D002066
:101A1000E01C0020B81D0020281D002008B50A4841
:101A20000A4B03604FF4E133436000238360C360DB
:101A300003610C2242618361C36103F09DFE00B922
:101A400008BDFFF794FAFBE7E01F002000100140FB
:101A500008B50A480A4B03600A4B436000238360C1
:101A6000C36003610C2242618361C36103F084FEA1
:101A700000B908BDFFF77BFAFBE700BF2420002078
:101A800000480040A086010008B50A480A4B0360E0
:101A90004FF4E133436000238360C36003610C2291
:101AA00042618361C36103F067FE00B908BDFFF7BF
:101AB0005EFAFBE768200020001401402DE9F041A8
:101AC0008CB0044600230793089309930A930B9361
:101AD00003689A4A93420AD0994A934200F082805E
:101AE000984A934200F0C5800CB0BDE8F081002513
:101AF0000095954B5A6C42F010025A645A6C02F0F1
:101B000010020092009A01951A6B42F002021A63C9
:101B10001A6B02F002020192019A02951A6B42F0CE
:101B200001021A631B6B03F001030293029B8023E3
:101B300007934FF00208CDF8208003270A97072665
:101B40000B9607A9814801F0B1FA4FF4007307938F
:101B5000CDF8208009950A970B9607A97C4801F0DB
:101B6000A5FA7C487C4B03604FF0006343608560BE
:101B7000C5604FF48063036145618561C5614FF4C1
:101B800080330362456201F0ABF828BB714BA3635D
:101B90009C637248724B03604FF0006343604023C4
:101BA00083600023C3604FF48062026143618361FC
:101BB000C3614FF480320262436201F091F870B960
:101BC000664B63639C6300220521252000F0C2FF61
:101BD000252000F0F7FF87E7FFF7C9F9D6E7FFF701
:101BE000C6F9EDE700250395574B1A6C42F48022A5
:101BF0001A641A6C02F480220392039A04951A6BF9
:101C000042F004021A631B6B03F004030493049B69
:101C10004FF4406307930223089303230A93072397
:101C20000B9307A94F4801F041FA4F484F4B03600F
:101C30004FF0006343608560C5604FF480630361CB
:101C400045618561C5614FF400330362456201F06F
:101C500047F858B9444BA3639C6300220421272012
:101C600000F078FF272000F0ADFF3DE7FFF77FF998
:101C7000F0E700250595344B5A6C42F020025A6477
:101C80005A6C02F020020592059A06951A6B42F0F2
:101C900040021A631B6B03F040030693069B4FF44C
:101CA000844307930223089303230A9308230B9387
:101CB00007A92F4801F0FAF92E482F4B03604FF087
:101CC000206343608560C5604FF4806303614561B4
:101CD0008561C5614FF400330362456201F000F88D
:101CE00028BB244BA3639C632448254B03604FF01F
:101CF00020634360402383600023C3604FF480620D
:101D0000026143618361C3614FF4803202624362C6
:101D100000F0E6FF70B9194B63639C630022052154
:101D2000472000F017FF472000F04CFFDCE6FFF7EC
:101D30001EF9D6E7FFF71BF9EDE700BF00100140E1
:101D400000480040001401400038024000040240F6
:101D500000000240001E002088640240601E002037
:101D6000B864024000080240C01E00202860024003
:101D700000180240201F002028640240801F00201D
:101D8000A0640240DFF834D00D480E490E4A00230B
:101D900002E0D458C4500433C4188C42F9D30B4A1F
:101DA0000B4C002301E013600432A242FBD3FFF787
:101DB00073FB0FF0E3FDFFF731F9704700000220DD
:101DC000000000209C0A00201C450108A00A0020F9
:101DD0006CC10020FEE7000008B50B4B1A6842F406
:101DE00000721A601A6842F480621A601A6842F43B
:101DF00080721A60032000F09BFE0020FFF72EFA8D
:101E0000FFF70AFA002008BD003C0240034A1168AF
:101E1000034B1B780B441360704700BFAC200020BD
:101E200004000020014B1868704700BFAC20002060
:101E300038B50446FFF7F6FF0546B4F1FF3F02D080
:101E4000044B1B781C44FFF7EDFF401BA042FAD364
:101E500038BD00BF040000204A4B5A6822F44032CB
:101E60005A605A6841680A435A600268536823F40A
:101E70008073536002685368016943EA0123536029
:101E80000268536823F040735360026853688168A6
:101E90000B4353600268936823F400639360026805
:101EA0009368C1680B439360826A374B9A4257D05C
:101EB0000268936823F07063936002689368816A94
:101EC0000B4393600268936823F040539360026869
:101ED0009368C16A0B4393600268936823F002031E
:101EE000936002689368017E43EA4103936090F82F
:101EF0002030002B3FD00268536843F400635360E6
:101F00000268536823F46043536001684B68426A77
:101F1000013A43EA42334B600268D36A23F4700308
:101F2000D3620168CB6AC269013A43EA0253CB62C9
:101F30000268936823F4007393600268936890F8D2
:101F4000301043EA412393600268936823F480636E
:101F5000936002689368416943EA81239360704704
:101F60000268936823F0706393600268936823F0BB
:101F700040539360B0E70268536823F400635360F2
:101F8000CAE700BF002301400100000F38B310B5BD
:101F90000446036C43B1236C13F0100F0BD00120E7
:101FA000002384F83C3010BDFEF79EFB00236364E1
:101FB00084F83C30EFE7236C23F4885323F00203CA
:101FC00043F0020323642046FFF746FF00206064CD
:101FD000236C23F0030343F001032364E0E70120B3
:101FE0007047000082B00023019390F83C30012B31
:101FF00000F08980012380F83C3003689A6812F071
:10200000010F13D19A6842F001029A60414B1B689C
:10201000414AA2FB03239B0C03EB4303019302E021
:10202000019B013B0193019B002BF9D1026893684E
:1020300013F0010F5CD0036C23F4E06323F0010381
:1020400043F480730364536813F4806F05D0036C0A
:1020500023F4405343F480530364036C13F4805F10
:102060001BD0436C23F006034364002380F83C300C
:102070006FF022031360294B5B6813F01F0F27D109
:102080000368274A934211D002F58072934207D029
:10209000244A934214D0002033E000234364E4E751
:1020A00002F50072526812F01F0FF1D19A6812F017
:1020B000405F2AD19A6842F080429A60002020E076
:1020C00002F58072526812F0100FEFD0002018E075
:1020D0000368134A934201D0002012E09A6812F07C
:1020E000405F14D19A6842F080429A60002008E074
:1020F000036C43F010030364436C43F00103436437
:10210000002002B070470220FBE70020F9E7002022
:10211000F7E700BF0000002083DE1B4300230140DF
:10212000002001400022014070B504460D460368BE
:102130009A6812F4806F03D09B6813F4807F19D1E2
:10214000FFF770FE064623681A6812F0020F20D1CE
:10215000B5F1FF3FF7D0B5B923681B6813F0020F44
:10216000F1D1236C43F004032364002384F83C3052
:10217000032032E0036C43F020030364002380F863
:102180003C30012029E0FFF74DFE801BA842DAD940
:10219000E2E76FF012021A60236C43F400732364C9
:1021A00023689A6812F0405F16D1207EB0B9DA6ACF
:1021B00012F4700F03D09B6813F4806F0DD1236C61
:1021C00023F480732364236C13F4805F05D1236CA4
:1021D00043F00103236400E0002070BD0020FCE711
:1021E0000368D86C7047000030B482B000230193BC
:1021F00090F83C30012B00F0BB80012380F83C308C
:102200000B68092B41D90468E2689BB203EB4303D6
:102210001E3B4FF0070C0CFA03F322EA0303E360C2
:102220000468E2680B8803EB43031E3B8D6805FAE4
:1022300003F31343E3604B68062B3DD80468626BDD
:1022400003EB8303053B4FF01F0C0CFA03F322EA68
:10225000030363630468626B4B6803EB8303053B12
:10226000B1F800C00CFA03F3134363630268414BF7
:102270009A4251D002683F4B9A4256D0002380F8D0
:102280003C30184602B030BC7047046822699BB2EB
:1022900003EB43034FF0070C0CFA03F322EA0303AA
:1022A0002361046822690B8803EB43038D6805FAF8
:1022B00003F313432361BEE70C2B16D805682A6B82
:1022C00003EB8303233B1F2404FA03F322EA0303F3
:1022D0002B6305682A6B4B6803EB8303233B0C8855
:1022E00004FA03F313432B63C0E70568EA6A03EBC0
:1022F0008303413B1F2404FA03F322EA0303EB6246
:102300000568EA6A4B6803EB8303413B0C8804FAD7
:1023100003F31343EB62A9E70B68122BAAD1164A09
:10232000536843F480035360A4E70B68103B012B10
:10233000A4D8114A536843F4000353600B68102B70
:102340009CD10E4B1B6802F1467202F52E3202F24E
:102350008332A2FB03239B0C03EB83035B000193FB
:1023600002E0019B013B0193019B002BF9D185E722
:10237000022087E7002001400023014000000020E8
:10238000002800F0A18038B5044690F82030D3B181
:102390002268136843F001031360FFF743FD05460D
:1023A00023685A6812F0010F10D1FFF73BFD401B64
:1023B0000A28F5D9636A43F400336362052384F87D
:1023C0002030012038BDFEF717FAE1E71A6822F045
:1023D00002021A60FFF726FD054623685A6812F0CC
:1023E000020F0DD0FFF71EFD401B0A28F5D9636AC6
:1023F00043F400336362052384F820300120E1E7D1
:10240000227E012A3DD01A6822F080021A60637E83
:10241000012B3BD02268136823F040031360A37E96
:10242000012B39D02268136823F020031360E37E68
:10243000012B37D02268136843F010031360237F09
:10244000012B35D02268136823F008031360637FE3
:10245000012B33D02268136823F004031360A368B0
:10246000E268134322691343626913436268013AC5
:1024700021681343CB6100206062012384F820307F
:10248000A0E71A6842F080021A60C0E72268136869
:1024900043F040031360C2E72268136843F020034F
:1024A0001360C4E72268136823F010031360C6E7C3
:1024B0002268136843F008031360C8E722681368B2
:1024C00043F004031360CAE70120704790F82030FE
:1024D000013BDBB2012B05D9436A43F480234362FD
:1024E0000120704730B5464BD3F8002242F001027C
:1024F000C3F80022D3F8002222F47C52C3F8002251
:10250000D3F80022486A42EA0022C3F800224A694E
:1025100002F01F02012000FA02F2D3F81C026FEA57
:10252000020C20EA0200C3F81C02CB69C3B9344B89
:10253000D3F80C020CEA0000C3F80C028C8848693E
:10254000CD6844EA0544483043F830408C68088838
:1025500040EA04404C6904F1480E03EBCE03586096
:10256000CB69012B1ED08B69002B33D12448D0F8C6
:1025700004320CEA0303C0F804320B698BBB204819
:10258000D0F814320CEA0303C0F814320B6A012BA2
:102590002ED01B4AD2F8003223F00103C2F80032D9
:1025A000002030BD164BD3F80C021043C3F80C02C8
:1025B0008C8848690D6844EA0544483043F8304047
:1025C00088894C698D6840EA0540483403EBC403B0
:1025D0005860C8E70A48D0F804321343C0F8043200
:1025E000CBE70748D0F814321343C0F81432CDE7D4
:1025F0000349D1F81C321A43C1F81C22C9E700BFB5
:102600000064004070B5044690F82050EDB2012DF2
:1026100006D0436A43F4002343620125284670BD77
:10262000022380F820300268136823F0010313604E
:10263000FFF7F8FB064623685B6813F0010F0CD028
:10264000FFF7F0FB831B0A2BF5D9636A43F40033D1
:102650006362052384F82030E0E700256562DDE74A
:1026600030B590F820C00468A4680CF1FF3C5FFA14
:102670008CFCBCF1010F6BD814F0E05F62D0C4F3A6
:10268000016CBCF1020F05D9436A43F400034362B5
:10269000012062E0012404FA0CF41C608B68002B1A
:1026A0003DD10D68CB68046843EA45550CF1180329
:1026B0001B01E55003680C690CF1180E03EB0E13B7
:1026C0005C600B7D012B35D0D17993791B0443EAF3
:1026D0000163517943EA012314790168234301EB33
:1026E0000C11C1F88C31D17893781B0443EA016353
:1026F000517843EA0123117802680B4302EB0C1274
:10270000C2F8883102680CF1180C4FEA0C1C52F820
:102710000C3043F0010342F80C3000201DE04C68FF
:1027200043EAC403CC6823430CF118042401056870
:102730002B51BFE7036803EB0E13596841F4807116
:102740005960C1E7436A43F400134362012004E087
:10275000436A43F480234362012030BD90F820C0D7
:102760000CF1FF3C5FFA8CFCBCF1010F00F295808C
:1027700030B451B90468E46814F0030F10D1436A0F
:1027800043F400134362012077E00468246914F0E5
:10279000030F05D1436A43F40013436201206CE048
:1027A00001F11B04240105682C5904F00404946011
:1027B000002C64D101F11B04240105682C59640D1F
:1027C0001460046801F11B0C4FEA0C1C54F80C4017
:1027D00004F00204D46004686444646804F00F04E4
:1027E0001461046864446468C4F307249461046851
:1027F00064446468240C5461026802EB0112D2F84C
:10280000B8211A70026802EB0112D2F8B821C2F3A3
:1028100007225A70026802EB0112D2F8B821C2F303
:1028200007429A70026802EB0112D2F8B821120E28
:10283000DA70026802EB0112D2F8BC211A71026848
:1028400002EB0112D2F8BC21C2F307225A710268CE
:1028500002EB0112D2F8BC21C2F307429A7102685E
:1028600002EB0112D2F8BC21120EDA7179B90268BA
:10287000D36843F02003D360002030BC704701F1DF
:102880001B04240105682C59E408546099E7026888
:10289000136943F020031361EEE7436A43F4802396
:1028A00043620120704790F82030013BDBB2012BDE
:1028B00005D9436A43F480234362012070470268CC
:1028C0005369194351610020704770477047704742
:1028D0007047704770477047704770477047704740
:1028E000704770472DE9F84F054603685C69D3F8D7
:1028F00004809F68D3F80CB0D3F810A0D3F81890D8
:1029000014F001063BD017F0010616D001229A60A0
:1029100017F0020F08D117F0040F0CD117F00806BA
:1029200006D04FF4805608E0FFF7CFFF002604E002
:10293000FFF7CEFF01E04FF4006617F4807F0DD063
:102940002B684FF480729A6017F4007F40F0868005
:1029500017F4806F00F0868046F4005617F4803F2D
:102960000DD02B684FF480329A6017F4003F40F08E
:10297000838017F4802F00F0838046F4004614F023
:10298000080F07D01BF0100F04D046F400762B6818
:102990001022DA6014F0040F02D01BF0080F79D176
:1029A00014F0020F04D02B68DB6813F0030F78D10A
:1029B00014F0400F07D01AF0100F04D046F48066D0
:1029C0002B6810221A6114F0200F02D01AF0080FA1
:1029D0006BD114F0100F04D02B681B6913F0030F98
:1029E0006AD114F4003F02D018F0100F68D114F42B
:1029F000803F02D018F0080F69D114F4004F7AD04C
:102A000018F0040F74D014F4807F04D019F0010F73
:102A100001D046F0010614F4007F04D019F0020F33
:102A200001D046F0020614F4806F04D019F0040FB0
:102A300001D046F0040614F4006F59D019F0700963
:102A400056D0B9F1400F65D058D8B9F1200F5ED0FB
:102A5000B9F1300F42D146F0200644E02846FFF796
:102A600035FF7BE717F4006F02D046F4804675E728
:102A70002846FFF72EFF71E72846FFF728FF7EE77D
:102A800017F4002F02D046F4803678E72846FFF787
:102A900021FF74E72B680822DA602846FFF71CFF45
:102AA0007EE72846FFF717FF82E72B6808221A61A6
:102AB0002846FFF713FF8CE72846FFF70EFF90E745
:102AC0002B6810225A602846FFF709FF8FE72B6812
:102AD00008225A602846FFF703FF8EE7B9F1100F6E
:102AE00001D146F008062A68936923F070039361C8
:102AF0002B6804225A609EB9BDE8F88FB9F1500FD7
:102B00000BD0B9F1600FEED146F48076EBE746F0DA
:102B10001006E8E746F04006E5E746F08006E2E703
:102B20006B6A1E436E622846FFF7DBFEE4E7000097
:102B3000074AD36823F4E0631B041B0C000200F473
:102B4000E060034343F0BF6343F40033D360704756
:102B500000ED00E000B5194BDB68C3F30223C3F1BD
:102B6000070CBCF1040F28BF4FF0040C03F1040E56
:102B7000BEF1060F18D9033B4FF0FF3E0EFA0CFCD6
:102B800021EA0C0199400EFA03F322EA03031943E8
:102B900000280BDB0901C9B200F1604000F561407B
:102BA00080F800135DF804FB0023E5E700F00F0058
:102BB0000901C9B2024B1954F4E700BF00ED00E06F
:102BC00014ED00E0002807DB00F01F02400901239C
:102BD0009340024A42F82030704700BF00E100E015
:102BE00030B405682C6824F480242C600468636089
:102BF0008368402B05D0036899600368DA6030BCB5
:102C0000704703689A600368D960F8E710B40368F6
:102C1000D9B210390C4AA2FB014212090B4CA25C3A
:102C2000C2655F2909D923F47F7323F003030433BA
:102C30008365806D5DF8044B704723F47F7323F048
:102C400003038365F5E700BFABAAAAAA7C38010895
:102C5000836A826992B9012B0AD0022B02D00BB190
:102C600000207047C36A13F0807F28D1002070478E
:102C7000C36AB3F1C07F24D000207047B2F5005F73
:102C800009D0022B25D9032B25D1C36A13F0807FED
:102C900023D100207047032B03D8DFE803F014048E
:102CA000140A00207047C36A13F0807F0DD1002002
:102CB0007047C36AB3F1C07F09D00020704701207C
:102CC00070470120704701207047012070470120A4
:102CD00070470120704700207047012070470000B6
:102CE00070B50446FFF79EF8002C5BD00546022322
:102CF00084F83530002384F834302268136823F0D8
:102D00000103136023681A6812F0010F0AD0FFF75D
:102D100089F8431B052BF5D920236365032084F82C
:102D2000350070BD1A68204810406168A2680A43E7
:102D3000E1680A4321690A4361690A43A1690A43B8
:102D4000E1690A43216A0A430243616A04291ED0E9
:102D50001A602668756925F00705636A1D43042B10
:102D600007D1A36A1D43E36A1BB12046FFF770FF3A
:102D700090B975612046FFF749FFE26D3F2393400C
:102D8000836000206065012384F83530C9E7E16A7B
:102D9000206B01430A43DBE740236365012084F88D
:102DA0003500BEE70120BCE73F8010F038B504468F
:102DB000856D90F8340001282BD0012084F8340070
:102DC00094F83500C0B2012804D0002384F83430D0
:102DD000022038BD022084F83500002060652046BE
:102DE000FFF7FEFEE26D3F239340AB60226813685D
:102DF00043F016031360236C23B12268136843F079
:102E0000080313602268136843F001031360002075
:102E1000DFE70220DDE770B50446866DFFF702F8B4
:102E200094F83530DBB2022B06D080236365002393
:102E300084F83430012070BD05462268136823F001
:102E4000160313602268536923F080035361236CD7
:102E5000E3B12268136823F0080313602268136843
:102E600023F00103136023681B6813F0010F11D0D6
:102E7000FEF7D8FF431B052BF5D9202363650320FC
:102E800084F83500002384F83430D4E7A36C002B99
:102E9000DFD1E3E7E26D3F239340B360012384F881
:102EA0003530002084F83400C5E790F83530DBB2C7
:102EB000022B03D08023436501207047052380F84F
:102EC00035300268136823F0010313600020704757
:102ED000F0B583B0044600230193724B1D68724B1A
:102EE000A3FB0535AD0A876D3E68C26D082393408C
:102EF000334210D003681A6812F0040F0BD01A681E
:102F000022F004021A60C26D08239340BB60436D37
:102F100043F001034365E26D01239340334209D03E
:102F20002268526912F0800F04D0BB60636D43F0D9
:102F300002036365E26D04239340334209D02268A3
:102F4000126812F0020F04D0BB60636D43F00403FB
:102F50006365E26D10239340334224D022681268E7
:102F600012F0080F1FD0BB6023681A6812F4802F7C
:102F70000DD01B6813F4002F04D1236C9BB12046A5
:102F8000984710E0A36C73B1204698470BE01A688D
:102F900012F4807F03D11A6822F008021A60236CB1
:102FA0000BB120469847E26D20239340334255D021
:102FB0002268126812F0100F50D0BB6094F83530C0
:102FC000DBB2052B0ED023681A6812F4802F33D0A1
:102FD0001B6813F4002F2AD1636C002B3ED02046CF
:102FE00098473BE02268136823F0160313602268B9
:102FF000536923F080035361236CA3B122681368E3
:1030000023F008031360E26D3F239340BB6001236C
:1030100084F83530002384F83430236D002B3FD002
:10302000204698473CE0A36C002BE7D1EBE7E36B2D
:10303000A3B12046984711E01A6812F4807F09D1A5
:103040001A6822F010021A60012384F83530002338
:1030500084F83430E36B0BB120469847636DFBB1C5
:10306000636D13F0010F17D0052384F83530226803
:10307000136823F001031360019B01330193AB42FA
:1030800004D823681B6813F0010FF5D1012384F8DD
:103090003530002384F83430E36C0BB12046984778
:1030A00003B0F0BD00000020B5814E1B00230F2BA4
:1030B00000F2E48070B582B060E085685E000324B1
:1030C000B44025EA0405CC68B4402C4384604568CC
:1030D00025EA02054C68C4F300129A402A43426074
:1030E0005AE0DC08083450F8246003F00702950029
:1030F0000F22AA4026EA020E0A69AA4042EA0E02FC
:1031000040F824205CE0072200E0002202FA0EF2E0
:103110002A4302345A4D45F824205A4A94686FEAEB
:103120000C0224EA0C054E6816F4801F01D04CEA0C
:103130000405544CA560E46802EA04054E6816F4E0
:10314000001F01D04CEA04054E4CE560646802EAB9
:1031500004054E6816F4003F01D04CEA0405494CC2
:103160006560246822404D6815F4803F01D04CEA28
:103170000402444C226001330F2B7DD801229A4077
:103180000C6804EA020C32EA0404F4D14C6804F03E
:103190000304013C012C90D94A6802F00302032A7F
:1031A00009D0C4685D000322AA4024EA02048A68A8
:1031B000AA402243C2604A6802F00302022A90D069
:1031C00004684FEA430E032202FA0EF224EA0204D4
:1031D0004A6802F0030202FA0EF2224302604A68D1
:1031E00012F4403FC7D000220192274A546C44F4A5
:1031F00080445464526C02F480420192019A9C080B
:10320000A51C1F4A52F8255003F003024FEA820E14
:103210000F2202FA0EF225EA02051C4A90423FF400
:1032200074AF02F5806290421AD002F5806290423B
:1032300018D002F58062904216D002F5806290426A
:1032400014D002F58062904212D002F58062904262
:1032500010D002F5806290423FF455AF082255E746
:10326000012253E7022251E703224FE704224DE7F0
:1032700005224BE7062249E702B070BD704700BF48
:1032800000380140003C014000380240000002408C
:103290000AB181617047090481617047436901EA9D
:1032A000030221EA030141EA02418161704770474C
:1032B00008B5054B5B69034200D108BD024B58615C
:1032C000FFF7F5FFF9E700BF003C0140002800F0E0
:1032D000CC8070B5044690F83D30002B77D0242385
:1032E00084F83D302268136823F0010313602268DC
:1032F000136843F4004313602268136823F4004307
:10330000136001F02FFA62685A4B9A4264D85A4B04
:1033100098428CBF00230123002B40F0A88057491E
:10332000A1FB00318B0C25686A6822F03F0242EA5B
:1033300091426A6021680A6A22F03F0266684D4D38
:10334000AE424FD8013313430B622168CA6922F49D
:103350004F4222F0FF026668464B9E424CD8431E05
:103360007600B3FBF6F3013340F6FC70034278D0ED
:10337000C3F30B031343CB6121680B6823F0C00335
:10338000E269206A024313430B6021688B6823F4CF
:10339000034323F0FF032269E068024313438B6079
:1033A0002168CB6823F0FF036269A06902431343DD
:1033B000CB602268136843F001031360002020648F
:1033C000202384F83D30206384F83E0070BD80F8EF
:1033D0003C30FDF73DFD82E7294B98428CBF00232E
:1033E000012399E74FF4967505FB03F3254DA5FBE3
:1033F00003539B090133A6E7A368BBB9451E06EB3F
:10340000460CB5FBFCF50135C5F30B05B5FA85F5A2
:103410006D0945BBC3B9013806EB4603B0FBF3F3B6
:103420000133C3F30B0343F40043A3E7451E06EB4C
:10343000860C0CEB8C0CB5FBFCF50135C5F30B05CC
:10344000B5FA85F56D09E4E7013806EB860303EB71
:103450008303B0FBF3F30133C3F30B0343F44043A3
:1034600088E7042386E7012384E7012070470120D1
:10347000ACE700BFA08601007F841E0083DE1B43F3
:10348000FF083D00D34D62102DE9F04383B0D0F822
:10349000008001EBC10300EB8303DA6D5B6D9A42A0
:1034A00054D807460C469B1A01EBC10200EB82027E
:1034B000926C9A4200D31A4602F103094FEA990925
:1034C00015E006F103094FEA990904EBC40507EB7F
:1034D0008505E96C3B7C0093B3B2E2B2404603F051
:1034E000C2F8EB6C3344EB64EB6D3344EB6508EBF3
:1034F000441303F510639B699BB24B4512D304EB55
:10350000C40207EB8202D16D536D99420AD24BB1CE
:103510005B1A04EBC40207EB8202966C9E42D0D386
:103520001E46CEE704EBC40007EB80077A6DFB6D07
:103530009A420FD804F00F040123A340D8F834486E
:1035400024EA0304C8F83448002000E0012003B056
:10355000BDE8F0830020FAE770B58AB0002800F0DB
:1035600090800546046890F8BD343BB3032385F88A
:10357000BD34E36B13F4807F01D100232B612868F5
:1035800002F08CFD2C4654F8106BEC460FCCACE8E6
:103590000F000FCCACE80F0094E803008CE80300A8
:1035A0002B1D0ECB304602F0BBFC044658B1022363
:1035B00085F8BD34012420460AB070BD80F8BC34C3
:1035C00009F0FAF9D2E70021286803F063FA2346EC
:1035D00016E003EBC30205EB8202012182F83D10E5
:1035E00082F83C30A2F84430002182F84010916407
:1035F000D16403EBC30205EB820251650133DBB2F8
:1036000069688B42E5D316E004EBC40305EB830342
:10361000002283F87D2283F87C4283F88022C3F85D
:103620008822C3F88C2204EBC40305EB8303C3F8A0
:1036300094220134E4B2A142E6D82C4654F8106B2F
:10364000EC460FCCACE80F000FCCACE80F0094E8D0
:1036500003008CE803002B1D0ECB304602F07AFDF0
:10366000044620B1022385F8BD340124A3E70023DA
:1036700085F83830012385F8BD34286803F0C7F990
:1036800099E7012497E7026890F8BC34012B19D020
:1036900010B50446012380F8BC34836A012B09D09D
:1036A000206802F0F5FC206803F0A3F9002084F8FC
:1036B000BC0410BD8369012BF2D0936B43F48033BB
:1036C0009363EDE70220704770B504460D4600682D
:1036D000066C00EB411303F530639A6821690129F8
:1036E00011D038498E4256D03DB905EBC50304EBE5
:1036F0008303D3F89432002B5ED0E9B2204609F060
:10370000A5F9002070BD12F0080F09D02E498E4295
:10371000F7D912F4004FF4D04FF400429A60F0E76A
:1037200012F0200F02D020229A60EAE712F0280F50
:10373000E7D125498E4206D912F4004F03D04FF449
:1037400000429A60DDE705EBC50204EB8202D2F885
:1037500098121B69C3F31203CB1AC2F89C327DB9CD
:1037600005EBC50204EB8202D2F894226AB105EBA4
:10377000C50204EB8202D2F88C120B44C2F88C32E0
:10378000E9B2204609F062F9BBE704F2C442012124
:1037900003F0C2F9F4E712F4004F03D04FF40042F3
:1037A0009A60AEE712F0200F01D020229A60E9B2B1
:1037B000204609F04BF9A4E704F2C442002103F0CB
:1037C000ABF99AE70A31544F0A30544F38B50446E2
:1037D00003681D6C03EB4113D3F8081B0E4A954296
:1037E00007D903F5306311F4004F02D04FF40042C3
:1037F0009A60204609F022F9074B9D4202D92369BD
:10380000012B01D0002038BD04F2C4420121206800
:1038100003F082F9F6E700BF0A30544F90F8BC3449
:10382000012B0DD010B50446012380F8BC3480F87C
:103830003810006803F0CDF8002084F8BC0410BDF7
:103840000220704738B505468C4611F0800F29D10B
:1038500001F00F0E0EEBCE04A40004F51E74044418
:10386000211D0EEBCE0E00EB8E0E00208EF87D0299
:103870000CF00F0C81F800C0CA600B714A780AB1D5
:10388000A1F808C0022B1DD095F8BC34012B1CD028
:10389000012385F8BC34286802F035FD002085F846
:1038A000BC0438BD01F00F0000EBC00189003831C5
:1038B0002944043100EBC00005EB8000012480F8AE
:1038C0003D40D5E700234B71DEE70220E9E710B564
:1038D00004460A4611F0800F20D101F00F0000EBE2
:1038E000C0039B0003F51E732344191D00EBC000A9
:1038F00004EB8000002380F87D3202F00F020A7092
:1039000094F8BC34012B19D0012384F8BC3420680E
:1039100002F048FD002084F8BC0410BD01F00F0047
:1039200000EBC0039B0038332344191D00EBC0009B
:1039300004EB8000012380F83D30DEE70220ECE755
:1039400010B501F00F0404EBC401890001F51E71EC
:103950000144043104EBC40C00EB8C0CCCF88C2239
:10396000CCF894320023CCF89C328CF87D328CF861
:103970007C420369012B06D064B9DAB2006802F018
:1039800081FD002010BD04EBC40C00EB8C0CCCF8C6
:103990009022F1E7DAB2006802F07CFEF1E701F074
:1039A0000F0101EBC10100EB8101D1F89C027047CE
:1039B00010B501F00F0404EBC40189003831014453
:1039C000043104EBC40C00EB8C0CCCF84C20CCF88C
:1039D00054300023CCF85C3001238CF83D308CF857
:1039E0003C400369012B06D064B9DAB2006802F0EA
:1039F00049FD002010BD04EBC40C00EB8C0CCCF88E
:103A00005020F1E7DAB2006802F044FEF1E738B581
:103A100001F00F054268954239D804460B4611F073
:103A2000800F1FD101EBC101890001F51E71014416
:103A3000043103EBC30300EB8303002283F87D22F0
:103A400001238B700D7094F8BC34012B21D001231D
:103A500084F8BC34206802F061FF8DB1002084F846
:103A6000BC0438BD05EBC50189003831014404317F
:103A700005EBC50300EB8303012283F83D20DFE75C
:103A800004F2C442217C206803F046F8E6E70120F6
:103A9000E7E70220E5E701F00F034268934231D8DF
:103AA00010B5044611F0800F1ED103EBC30189004D
:103AB00001F51E710144043103EBC30200EB8202E5
:103AC000002082F87D0200228A700B7094F8BC34CA
:103AD000012B19D0012384F8BC34206802F04BFF7D
:103AE000002084F8BC0410BD03EBC3018900383109
:103AF0000144043103EBC30200EB8202012082F88F
:103B00003D00E0E7012070470220ECE708B511F026
:103B1000800F0CD101F00F0101EBC101890001F50B
:103B20001E7101440431006802F03EFD08BD01F041
:103B30000F0101EBC1018900383101440431F2E782
:103B40002DE9F04F83B004460568284602F09EFF39
:103B500010B103B0BDE8F08F0646206802F065FFA3
:103B60000028F6D005F50067BB68C3F30D23C4F841
:103B7000FC34206802F059FF10F0020F04D02268D4
:103B8000536903F002035361206802F04EFF10F006
:103B9000100F13D02268936923F010039361D5F8B6
:103BA000208008F00F09C8F34343022B4BD0062BAB
:103BB0006FD02268936943F010039361206802F08C
:103BC00034FF10F4002F76D1206802F02EFF10F49D
:103BD000802F40F0E080206802F027FF0028C0F22C
:103BE0006381206802F021FF10F4006F09D0BB68E8
:103BF00013F0010F40F070812268536903F40063F1
:103C00005361206802F011FF10F4805F40F068817A
:103C1000206802F00AFF10F4005F40F0B5812068D0
:103C200002F003FF10F0080F40F0C681206802F098
:103C3000FCFE10F0800F00F0D981AB6923F0800307
:103C4000AB610126C2E147F6F07318EA030FB0D06A
:103C50004FEA181B4FEAC903019309EBC90A04EBA9
:103C60008A0AC8F30A12DAF88C12284602F02CFEEF
:103C7000CBF30A0BDAF88C325B44CAF88C32019B26
:103C80004B4404EB8303D3F89C325B44CAF89C3268
:103C90008FE7082204F2C441284602F015FEC8F35B
:103CA0000A1809EBC90204EB8202D2F89C324344A1
:103CB000C2F89C327DE7206802F0BBFE8046B14628
:103CC00035E005EB49130122C3F8082B494620468D
:103CD000FFF7FAFC3CE005EB49130822C3F8082B78
:103CE00049462046FFF772FD35E009EBC90304EBB6
:103CF000830393F87F32012B41D005EB4913022255
:103D0000C3F8082B1AF0200F04D005EB491320222A
:103D1000C3F8082B1AF4005F05D005EB49134FF4E4
:103D20000052C3F8082B09F101094FEA5808B8F10D
:103D3000000F3FF449AF18F0010FF4D05FFA89FB90
:103D40005946206802F085FE824610F0010FB8D176
:103D50001AF0080FBFD11AF0100F04D005EB491369
:103D60001022C3F8082B1AF0020FCBD06B6913F0A6
:103D7000800FBAD07B6843F480637B60B5E709EBC2
:103D8000C90304EB8303002283F87F2259462046AF
:103D900008F0AEFEB1E7206802F053FE8046B1465F
:103DA00025E05946204608F05DFE1AF0080F04D0C1
:103DB00005EB49130822C3F808291AF0100F04D0A4
:103DC00005EB49131022C3F808291AF0400F04D05C
:103DD00005EB49134022C3F808291AF0020F40D11D
:103DE0001AF0800F5BD109F101094FEA5808B8F1C8
:103DF000000F3FF4F0AE18F0010FF4D05FFA89FB2A
:103E00005946206802F02EFE824610F0010FCCD0F9
:103E100009F00F03012101FA03F27B6B23EA02038D
:103E20007B6305EB4913C3F8081923698B42B8D1AA
:103E300009EBC90304EB8303996CDA6C0A44DA6476
:103E4000B9F1000FADD109EBC90304EB83035B6D3E
:103E5000002BA6D104F2C4420121206802F05CFECE
:103E60009FE74946284602F01FF909EBC90304EB16
:103E7000830393F83F30012B05D005EB4913022251
:103E8000C3F80829ACE709EBC90304EB830300225C
:103E900083F83F205946204608F030FEEDE74946BA
:103EA0002046FFF7F1FA9EE77B6823F001037B6071
:103EB00094F8F434012B08D0204608F013FE226851
:103EC000536903F0004353618BE6002184F8F41436
:103ED000204600F041F9F2E7204608F0EBFD8BE6C2
:103EE0007B6823F001037B601021206802F0DCF87E
:103EF0001AE005EB46134FF67F31C3F80819D3F8E3
:103F0000002922F40012C3F80029C3F8081BD3F8D3
:103F1000002B22F40012C3F8002BD3F8002B42F040
:103F20000062C3F8002B01366368B342E1D8FB6935
:103F300043F00113FB61236BDBB1D7F8843043F00E
:103F40000B03C7F884307B6C43F00B037B64D5F81C
:103F5000003823F4FE63C5F8003804F2C442217C23
:103F6000206802F0D9FD2268536903F4805353613D
:103F70004EE67B6943F4005343F02B037B613B69BE
:103F800043F00B033B61E2E7206802F0B4FD2068D8
:103F900002F0A8F9E060266800F0DEFB0146227B13
:103FA000304602F003F8204608F06DFD22685369A0
:103FB00003F40053536132E6204608F05EFD2268A8
:103FC000536903F00803536130E601366368B34276
:103FD0000CD906EBC60304EB830393F87F32012B65
:103FE000F3D1F1B22046FFF791FDEEE7206802F031
:103FF0001CFD10F4801F27D1206802F016FD10F47C
:10400000001F5BD0012328E001366368B3421DD94D
:1040100005EB4613D3F8002906EBC60304EB830334
:1040200093F84030012BEFD1002AEDDA06EBC603FE
:1040300004EB8303012283F83F2066F07F01C9B2BD
:104040002046FFF763FDDFE70126DEE722685369BC
:1040500003F480135361CFE7013362689A4228D991
:1040600005EB4312D2F8001B03EBC30204EB820200
:1040700092F88022012AEFD10029EDDA01F4803193
:10408000D4F8FC2402F001029142E5D103EBC30213
:1040900004EB8202012182F87F12AA6942F08002B9
:1040A000AA616A6912F0800FD6D17B6843F400736D
:1040B0007B602268536903F400135361206802F0A7
:1040C000B4FC10F0804F10D1206802F0AEFC10F06C
:1040D000040F3FF43EAD23685D6815F0040F0DD169
:1040E000226853682B43536033E5204608F00CFDEB
:1040F0002268536903F080435361E5E7204608F0E6
:1041000009FDEDE710B40468606A31B940EA024085
:10411000A06200205DF8044B70478C46A36A00EB58
:104120001340002308E003F1400104EB81014968DA
:1041300000EB11400133DBB20CF1FF318B42F2D3C3
:1041400040EA02400CF13F0104EB81014860E0E7E6
:10415000036859620020704770470000002800F093
:10416000E08170B582B00446036813F0010F3BD0C4
:104170009F4B9B6803F00C03042B2CD09C4B9B683B
:1041800003F00C03082B21D06368B3F5803F4FD0B8
:10419000B3F5A02F52D0964B1A6822F480321A60E1
:1041A0001A6822F480221A606368002B50D0FDF751
:1041B00039FE05468E4B1B6813F4003F14D1FDF702
:1041C00031FE401B6428F5D90320B1E1884B5B68C0
:1041D00013F4800FD8D0864B1B6813F4003F03D034
:1041E0006368002B00F09F81236813F0020F54D006
:1041F0007F4B9B6813F00C0F3ED07D4B9B6803F008
:104200000C03082B33D0E368002B68D0794B0122D4
:104210001A60FDF707FE0546754B1B6813F0020F89
:1042200054D1FDF7FFFD401B0228F5D903207FE1A3
:104230006F4A136843F480331360B5E76C4B1A6818
:1042400042F480221A601A6842F480321A60ABE7A6
:10425000FDF7E8FD0546664B1B6813F4003FC3D02D
:10426000FDF7E0FD401B6428F5D9032060E1604BB9
:104270005B6813F4800FC6D15D4B1B6813F0020F0F
:1042800003D0E368012B40F05081594A136823F0B2
:10429000F803216943EAC1031360236813F0080F90
:1042A00042D063696BB3534B0122C3F8802EFDF7F4
:1042B000B9FD05464E4B5B6F13F0020F34D1FDF78D
:1042C000B1FD401B0228F5D9032031E1484A1368AB
:1042D00023F0F803216943EAC1031360DDE7454B8E
:1042E00000221A60FDF79EFD0546414B1B6813F046
:1042F000020FD2D0FDF796FD401B0228F5D903200E
:1043000016E13C4B0022C3F8802EFDF78BFD0546DD
:10431000374B5B6F13F0020F06D0FDF783FD401B98
:104320000228F5D9032003E1236813F0040F77D0A6
:104330002F4B1B6C13F0805F33D1002301932C4B68
:104340001A6C42F080521A641B6C03F08053019384
:10435000019B0125284B1B6813F4807F23D0A368A1
:10436000012B34D0052B38D0214B1A6F22F00102DB
:104370001A671A6F22F004021A67A368002B3DD057
:10438000FDF750FD06461A4B1B6F13F0020F46D186
:10439000FDF748FD801B41F288339842F3D9032092
:1043A000C6E00025D6E7144A136843F4807313600F
:1043B000FDF738FD0646104B1B6813F4807FCED105
:1043C000FDF730FD801B0228F5D90320B0E0084A34
:1043D000136F43F001031367CFE7054B1A6F42F0E9
:1043E00004021A671A6F42F001021A67C5E700BF9C
:1043F000003802400000474200700040FDF712FD07
:104400000646524B1B6F13F0020F08D0FDF70AFD52
:10441000801B41F288339842F3D9032088E0EDB93C
:10442000A369002B00F08380484A926802F00C02D6
:10443000082A51D0022B17D0454B00221A66FDF7EF
:10444000F1FC0446414B1B6813F0007F42D0FDF79E
:10445000E9FC001B0228F5D9032069E03B4A136CF4
:1044600023F080531364DBE7394B00221A66FDF713
:10447000D9FC0546354B1B6813F0007F06D0FDF7CD
:10448000D1FC401B0228F5D9032051E0E369226AE0
:104490001343626A43EA8213A26A5208013A43EA6A
:1044A0000243E26A43EA0263284A5360284B01222E
:1044B0001A66FDF7B7FC0446244B1B6813F0007F17
:1044C00006D1FDF7AFFC001B0228F5D903202FE031
:1044D00000202DE000202BE0012B2BD01B4B5B6834
:1044E00003F48001E269914226D103F03F02216A80
:1044F0008A4223D1616A47F6C0721A40B2EB811F2B
:104500001ED103F44031A26A5208013AB1EB024FC6
:1045100018D103F07063E26AB3EB026F14D100208C
:1045200006E001207047012002E0012000E00020A9
:1045300002B070BD0120FBE70120F9E70120F7E799
:104540000120F5E70120F3E70120F1E70038024000
:104550000000474208B5254B9B6803F00C03042B71
:104560003FD0082B3FD1214B5A6802F03F025B68D5
:1045700013F4800F12D01D4B5968C1F388111C48E9
:104580000023A1FB0001FBF723FE184B5B68C3F37C
:10459000014301335B00B0FBF3F025E0134B596896
:1045A000C1F3881C4FEA4C11B1EB0C006EEB0E0E00
:1045B0004FEA8E1343EA90638101091A63EB0E03FD
:1045C000DB0043EA5173C90011EB0C0C43F100030B
:1045D000990200234FEA8C2041EA9C51FBF7F8FD39
:1045E000D3E7034800E0034808BD00BF003802409D
:1045F000001BB7000024F400002800F09B8070B579
:104600000D4604464F4B1B6803F007038B4208D24C
:10461000CBB24C4A1370136803F007038B4240F08F
:104620008B80236813F0020F17D013F0040F04D00F
:10463000454A936843F4E0539360236813F0080FEE
:1046400004D0414A936843F4604393603E4A9368C0
:1046500023F0F003A1680B439360236813F0010F6C
:1046600032D06368012B21D09A1E012A25D9364AFF
:10467000126812F0020F61D033498A6822F00302F7
:1046800013438B60FDF7CEFB06462F4B9B6803F070
:104690000C036268B3EB820F16D0FDF7C3FB801BDF
:1046A00041F288339842F0D9032042E0264A12684A
:1046B00012F4003FE0D101203BE0234A126812F0DF
:1046C000007FD9D1012034E01E4B1B6803F00703A3
:1046D000AB4207D9EAB21B4B1A701B6803F0070301
:1046E000AB422DD1236813F0040F06D0164A93680D
:1046F00023F4E053E1680B439360236813F0080F41
:1047000007D0114A936823F46043216943EAC10347
:104710009360FFF71FFF0C4B9B68C3F303130B4A17
:10472000D35CD8400A4B18600A4B1868FCF796FD1A
:10473000002070BD012070470120FAE70120F8E752
:104740000120F6E7003C02400038024064380108CE
:104750000000002008000020014B1868704700BFCF
:104760000000002008B5FFF7F7FF044B9B68C3F378
:104770008223034AD35CD84008BD00BF0038024002
:104780007438010808B5FFF7E7FF044B9B68C3F3D3
:104790004233034AD35CD84008BD00BF0038024012
:1047A000743801080F2303600B4B9A6802F0030270
:1047B00042609A6802F0F00282609A6802F4E05265
:1047C000C2609B68DB0803F4E0530361034B1B6882
:1047D00003F007030B60704700380240003C0240C2
:1047E0002DE9F04782B00546884617461E46FDF77C
:1047F00019FB0A9B1B1A03EB0609FDF713FB824604
:104800002B4B1B68C3F3CB3309FB03F301932B68DA
:104810009C6838EA04030CBF4FF0010C4FF0000C09
:10482000BC4540D0B6F1FF3FF1D0FDF7FBFAA0EB5D
:104830000A0048450AD2B9F1000F07D0019A02B127
:104840004A46019B013B01939146E0E72A68536881
:1048500023F0E00353606B68B3F5827F0BD0AB6A43
:10486000B3F5005F14D0012385F85130002385F89B
:104870005030032018E0AB68B3F5004F02D0B3F519
:10488000806FECD12A68136823F040031360E6E7D9
:104890002A68136823F4005313602A68136843F4EA
:1048A00000531360DFE7002002B0BDE8F08700BFCF
:1048B0000000002010B584B00446164B1868164B53
:1048C000A3FB0030400D4FF47A7303FB00F003901C
:1048D0006368B3F5827F0BD0039BBBB1039B013BA5
:1048E000039323689B6813F0800FF5D100200EE03E
:1048F00000920B46002280212046FFF771FF30B165
:10490000636D43F020036365032000E0002004B0E2
:1049100010BD00BF00000020819F5E1600285AD005
:1049200010B50446436A33B94368B3F5827F05D0B6
:104930000023C36102E00023036143610023A362FB
:1049400094F85130002B40D0022384F85130226873
:10495000136823F040031360636803F48273A26852
:1049600002F404421343E26802F400621343226932
:1049700002F002021343626902F001021343A269CA
:1049800002F400721343E26902F038021343226A10
:1049900002F080021343A26A02F40052216813431A
:1049A0000B60638B03F00403626A02F0100221685B
:1049B00013434B602268D36923F40063D361002062
:1049C0006065012384F8513010BD84F850302046D2
:1049D000FCF78AFBB8E7012070472DE9F04383B06C
:1049E0001F460A9D90F85030012B00F010810446BC
:1049F00088469146012380F85030FDF713FA0646A9
:104A000094F85130DBB26268012B0AD0B2F5827F94
:104A100040F0E380A268002A40F0E980042B40F0D7
:104A2000E880B8F1000F00F0E680B9F1000F00F067
:104A3000E480002F00F0E38094F85130DBB2042BC7
:104A400002D0052384F8513000236365C4F8389000
:104A5000E787A787C4F83080E786A7862364636466
:104A600023681A6812F0400F03D11A6842F040021E
:104A70001A60E368B3F5006F11D063680BB1012FC2
:104A80000BD1226B236812781A73236B01332363D3
:104A9000E38E9BB2013B9BB2E38601276BE0636828
:104AA0000BB1012F0BD1226B23681288DA60236BC4
:104AB00002332363E38E9BB2013B9BB2E386012763
:104AC0001CE023689A6812F0010F0ED0E28F92B2B8
:104AD0005AB1DA68A36B1A80A36B0233A363E38F26
:104AE0009BB2013B9BB2E3870127FDF79BF9801B3B
:104AF000A84203D3B5F1FF3F40F08380E38E9BB221
:104B00001BB9E38F9BB2002B53D023689A6812F035
:104B1000020FD6D0E28E92B2002AD2D0002FD0D08F
:104B2000226B1288DA60236B02332363E38E9BB21D
:104B3000013B9BB2E3860027C3E723689A6812F023
:104B4000010F0ED0E28F92B25AB1DA68A36B1A70DD
:104B5000A36B0133A363E38F9BB2013B9BB2E3875B
:104B60000127FDF75FF9831BAB4202D3B5F1FF3F8D
:104B700049D1002D49D0E38E9BB213B9E38F9BB28C
:104B8000BBB123689A6812F0020FD6D0E28E92B2BF
:104B9000002AD2D0002FD0D0226B12781A73236B48
:104BA00001332363E38E9BB2013B9BB2E386002774
:104BB000C3E7324629462046FFF77CFE48B9A36882
:104BC00063B901932368DA6801929B680193019BA2
:104BD00004E020236365012000E00220012384F823
:104BE0005130002384F8503003B0BDE8F083022038
:104BF000F4E70220F2E70120F0E70120EEE70120D0
:104C0000ECE70320EAE70320E8E70320E6E70220D9
:104C1000EAE7000030B4036A23F001030362036A89
:104C20004268846924F073040D682C4323F0020C5D
:104C30008B6843EA0C03104DA84203D005F580654C
:104C4000A84205D123F00803CD682B4323F00403C9
:104C5000094DA84203D005F58065A84205D122F48C
:104C600040724D692A438D692A43426084614A68D3
:104C70004263036230BC70470000014030B4036AF5
:104C800023F480730362036A4268C46924F0730CDE
:104C90000C6844EA0C0523F400738C6843EA04238F
:104CA000114CA04203D004F58064A04206D123F445
:104CB0000063CC6843EA042323F480630A4CA042D7
:104CC00003D004F58064A04207D122F440524C691D
:104CD00042EA04128C6942EA04124260C5614A68E1
:104CE000C263036230BC70470000014030B4036A05
:104CF00023F480530362036A4468C26922F4E642E3
:104D00000D6842EA052223F400538D6843EA053317
:104D1000094DA84203D005F58065A84204D124F4CA
:104D200080444D6944EA85144460C2614A68026463
:104D3000036230BC704700BF0000014010B4036A3A
:104D4000046A24F001040462846924F0F00C4CEA43
:104D5000021223F00A030B43826103625DF8044BE5
:104D6000704710B4046A24F0100404628469036A72
:104D700024F4704C4CEA023223F0A00343EA0113FE
:104D8000826103625DF8044B7047836823F070030F
:104D90000B4343F0070383607047000090F83D30F9
:104DA000DBB2012B37D1022380F83D300268D36893
:104DB00043F00103D3600368194A934220D0B3F152
:104DC000804F1DD0A2F57C42934219D002F580623B
:104DD000934215D002F58062934211D002F57842D9
:104DE00093420DD002F57052934209D0A2F594324D
:104DF000934205D01A6842F001021A600020704701
:104E00009A6802F00702062A07D01A6842F00102E7
:104E10001A6000207047012070470020704700BFD3
:104E2000000001407047704770477047704710B5E9
:104E3000044603681A6912F0020F11D0DA6812F002
:104E4000020F0DD06FF002021A610123037703688D
:104E50009B6913F0030F70D0FFF7E6FF0023237761
:104E600023681A6912F0040F12D0DA6812F0040FE6
:104E70000ED06FF004021A610223237723689B6926
:104E800013F4407F5FD02046FFF7CEFF0023237747
:104E900023681A6912F0080F12D0DA6812F0080FAE
:104EA0000ED06FF008021A61042323772368DB69B0
:104EB00013F0030F4ED02046FFF7B6FF00232377F1
:104EC00023681A6912F0100F12D0DA6812F0100F6E
:104ED0000ED06FF010021A61082323772368DB6974
:104EE00013F4407F3DD02046FFF79EFF0023237739
:104EF00023681A6912F0010F03D0DA6812F0010F6B
:104F000036D123681A6912F0800F03D0DA6812F0E4
:104F1000800F34D123681A6912F0400F03D0DA6889
:104F200012F0400F32D123681A6912F0200F03D01B
:104F3000DA6812F0200F30D110BDFFF774FF204661
:104F4000FFF773FF8AE72046FFF76DFF2046FFF764
:104F50006CFF9BE72046FFF766FF2046FFF765FFE3
:104F6000ACE72046FFF75FFF2046FFF75EFFBDE797
:104F70006FF001021A612046FBF7F0FFC1E76FF006
:104F800080021A61204600F0FFFAC3E76FF040028A
:104F90001A612046FFF74AFFC5E76FF020021A6149
:104FA000204600F0F0FAC7E70368304A904212D07A
:104FB000B0F1804F0FD0A2F57C4290420BD002F5A9
:104FC0008062904207D002F58062904203D002F5E1
:104FD0007842904203D123F070034A681343234A76
:104FE00090422AD0B0F1804F27D0A2F57C42904267
:104FF00023D002F5806290421FD002F58062904279
:105000001BD002F57842904217D002F570529042C0
:1050100013D002F5806290420FD002F58062904278
:105020000BD0A2F59832904207D002F580629042F0
:1050300003D002F58062904203D123F44073CA6822
:10504000134323F080034A69134303608B68C362F0
:105050000B688362054B984203D003F58063984246
:1050600001D10B69036301234361704700000140D4
:1050700040B310B5044690F83D30F3B1022384F8F4
:105080003D30214651F8040BFFF78EFF012384F8D1
:10509000463084F83E3084F83F3084F8403084F85D
:1050A000413084F8423084F8433084F8443084F846
:1050B000453084F83D30002010BD80F83C30FCF7CE
:1050C000F5F9DBE70120704740B310B5044690F8CE
:1050D0003D30F3B1022384F83D30214651F8040BF2
:1050E000FFF762FF012384F8463084F83E3084F8ED
:1050F0003F3084F8403084F8413084F8423084F8FE
:10510000433084F8443084F8453084F83D30002042
:1051100010BD80F83C30FFF785FEDBE701207047CB
:1051200030B4036A23F010030362036A446882699F
:1051300022F4E6420D6842EA052223F020038D683E
:1051400043EA0513114DA84203D005F58065A84236
:1051500006D123F08003CD6843EA051323F0400312
:105160000A4DA84203D005F58065A84207D124F472
:1051700040644D6944EA85048D6944EA85044460CD
:1051800082614A688263036230BC7047000001405C
:1051900038B590F83C30012B66D004460D4601230B
:1051A00080F83C300C2A5AD8DFE802F007595959E8
:1051B0001B5959593059595944000068FFF72AFDC5
:1051C0002268936943F0080393612268936923F08E
:1051D000040393612268936929690B43936100205A
:1051E0003EE00068FFF79CFF2268936943F4006388
:1051F00093612268936923F48063936122689369C1
:10520000296943EA01239361002029E00068FFF740
:1052100035FD2268D36943F00803D3612268D3695E
:1052200023F00403D3612268D36929690B43D36156
:10523000002015E00068FFF759FD2268D36943F4A8
:105240000063D3612268D36923F48063D361226849
:10525000D369296943EA0123D361002000E00120DA
:10526000002384F83C3038BD0220FCE710B4846889
:1052700024F47F4C42EA03220A4342EA0C02826091
:105280005DF8044B704790F83C30012B78D010B596
:105290000446012380F83C30022380F83D30026848
:1052A000936823F47F4323F0770393600B68602BAC
:1052B0004CD029D8402B54D00CD9502B22D1CA68BD
:1052C00049680068FFF73AFD50212068FFF75DFD4F
:1052D000002005E0202B0DD009D9302B0AD0012069
:1052E000012384F83D30002384F83C3010BD0BB11D
:1052F000102B05D119462068FFF747FD0020EFE786
:105300000120EDE70120EBE7B3F5805F34D0B3F582
:10531000005F0CD1CB684A6889680068FFF7A6FF78
:105320002268936843F4804393600020D8E7702B91
:1053300024D1CB684A6889680068FFF797FF226824
:10534000936843F0770393600020C9E7CA6849680F
:105350000068FFF706FD60212068FFF716FD0020BA
:10536000BEE7CA6849680068FFF7E8FC402120688A
:10537000FFF70BFD0020B3E70020B1E70120AFE706
:105380000220704701F01F01012303FA01FC036AA8
:1053900023EA0C030362036A02FA01F10B4303627E
:1053A0007047000010B504460846002942D194F821
:1053B0003E30DBB2013B18BF0123002B6ED1002829
:1053C00051D1022384F83E30012201462068FFF7C4
:1053D000D9FF2368334A934203D002F58062934297
:1053E00003D15A6C42F400425A6423682D4A934216
:1053F00049D0B3F1804F46D0A2F57C42934242D0CF
:1054000002F5806293423ED002F5806293423AD028
:1054100002F57842934236D002F57052934232D070
:10542000A2F5943293422ED01A6842F001021A601B
:10543000002032E0042908D008290DD094F841302A
:10544000DBB2013B18BF0123B7E794F83F30DBB272
:10545000013B18BF0123B0E794F84030DBB2013BB9
:1054600018BF0123A9E7042805D0082807D0022384
:1054700084F84130A8E7022384F83F30A4E70223F0
:1054800084F84030A0E79A6802F00702062A07D0A5
:105490001A6842F001021A60002010BD0120FCE7EA
:1054A0000020FAE70000014090F83C30012B3DD08D
:1054B00010B4012380F83C30022380F83D300368AB
:1054C0005A689C6822F0700C0A6842EA0C025A6022
:1054D0000368174A93421AD0B3F1804F17D0A2F550
:1054E0007C42934213D002F5806293420FD002F5C2
:1054F000806293420BD002F57842934207D002F5C6
:105500007052934203D0A2F59432934204D124F016
:1055100080044A6814439C60012380F83D300023D6
:1055200080F83C3018465DF8044B70470220704705
:105530000000014090F83C30012B22D0012380F87C
:105540003C30CB6823F440738A68134323F48063B0
:105550004A68134323F400630A68134323F4805317
:105560000A69134323F400534A69134323F4804325
:10557000CA69134302685364002380F83C3018461C
:1055800070470220704770477047026802F10C03B1
:1055900053E8003F23F0C0030C3242E800310029F9
:1055A000F3D1202380F83D307047026802F10C03EC
:1055B00053E8003F23F490730C3242E80031002995
:1055C000F3D1026802F1140353E8003F23F0010312
:1055D000143242E800310029F3D1036B012B05D0CE
:1055E000202380F83E30002303637047026802F1F5
:1055F0000C0353E8003F23F010030C3242E8003163
:105600000029F3D1ECE790F83D30DBB2212B01D03B
:10561000022070478368B3F5805F17D0036A5A1C75
:1056200002621A7803685A60C38C9BB2013B9BB23A
:10563000C3844BB90268D36823F08003D360026847
:10564000D36843F04003D360002070470369002B08
:10565000E4D1036A1B880268C3F308035360036A3A
:1056600002330362E0E7000038B5044602681369BC
:1056700023F44053C1680B431361836802691343E9
:1056800042691343C2691A430168CB6823F4164385
:1056900023F00C031343CB600268536923F4407377
:1056A00081690B4353610368314A934206D002F586
:1056B0008062934202D0FFF755F801E0FFF762F8ED
:1056C000E369B3F5004F29D00021031849411B18A5
:1056D00041F10001C90041EA5371DB001818636809
:1056E0004FEA83024FEA937341F10001FAF770FD2C
:1056F000204DA5FB00325109642303FB11031B015C
:105700003233A5FB03235B0903F0F00202EB011225
:1057100003F00F03216813448B6038BD0023021887
:1057200043EB0301121841F10001C90041EA527133
:10573000D200101841F10001626892185B41FAF73B
:1057400047FD0C4DA5FB00325109642303FB1103F7
:10575000DB003233A5FB03235B095A0002F4F87225
:1057600002EB011203F00703216813448B60D4E7B6
:10577000001001401F85EB5158B310B5044690F856
:105780003D300BB3242384F83D302268D36823F4E2
:105790000053D3602046FFF767FF2268136923F4A4
:1057A000904313612268536923F02A0353612268EE
:1057B000D36843F40053D36000202064202384F88E
:1057C0003D3084F83E3010BD80F83C30FCF776F96F
:1057D000D8E701207047000038B590F83D30DBB2C3
:1057E000202B38D10446002937D0002A37D090F832
:1057F0003C30012B35D0012380F83C30016282849B
:10580000C28400250564212380F83D30436B16488F
:10581000D863636B15481864636B1548D864636B71
:105820001D6520681346021D606BFDF7BFFA2368F3
:105830006FF040021A6084F83C50226802F11403B1
:1058400053E8003F43F08003143242E8003100295E
:10585000F3D1002000E0022038BD0120FCE7012048
:10586000FAE70220F8E700BFFB5800086359000878
:105870007359000810B5044603685A6990F83D3022
:10588000DBB2212B0AD023685A6902F0400294F857
:105890003E30DBB2222B19D0002010BD02F0800276
:1058A000002AF0D0226802F1140353E8003F23F0ED
:1058B0008003143242E800310029F3D1606B08B153
:1058C000FDF7A9FA2046FFF760FEDCE7002AE3D0E7
:1058D000226802F1140353E8003F23F0400314321E
:1058E00042E800310029F3D1A06B08B1FDF793FA2B
:1058F0002046FFF75AFECFE7704708B50346806B96
:105900001B681B6813F4807F1AD10023C3840268CC
:1059100002F1140353E8003F23F08003143242E8FD
:1059200000310029F3D1026802F10C0353E8003F73
:1059300043F040030C3242E800310029F3D108BDA6
:10594000FFF7DAFFFBE708B50168CA6822F04002FA
:10595000CA60202280F83D20FFF7CEFF002008BD5E
:10596000704708B5806BFFF7FBFF08BD70477047B5
:10597000704710B5846B23685A6994F83D30DBB2E8
:10598000212B10D023685A6902F0400294F83E306F
:10599000DBB2222B11D0236C43F01003236420468A
:1059A000FFF7E6FF10BD02F08002002AEAD00023D4
:1059B000E3842046FFF7E9FDE4E7002AEBD000236B
:1059C000E3852046FFF7F1FDE5E708B5806B00238E
:1059D000C385C384FFF7CCFF08BD704790F83E3005
:1059E000DBB2222B67D18368B3F5805F4DD0826A2A
:1059F000B3F5805F04D0002B54D10369002B51D143
:105A000003685B681370836A01338362C38D9BB242
:105A1000013B9BB2C385002B4FD100B583B0026818
:105A2000D36823F02003D3600268D36823F4807323
:105A3000D3600268536923F001035361202380F887
:105A40003E30036B012B33D100230363026802F164
:105A50000C0353E8003F23F010030C3242E80031FE
:105A60000029F3D103681A6812F0100F06D0002243
:105A700001921A6801925B680193019B818DFFF787
:105A8000ACFF002003B05DF804FB0269002AAED130
:105A9000826A03685B68C3F308031380836A023376
:105AA0008362B3E703685B6803F07F031370AAE7C0
:105AB000FFF75CFFE5E70220704700207047000019
:105AC00030B583B0044602681368D068516913F09A
:105AD0000F0505D113F0200F02D010F0200F19D1BF
